:020000040800F2
:1000000010080020E1300008293100082D310008D7
:100010003131000835310008393100080000000096
:100020000000000000000000000000003D3100085A
:10003000413100080000000045310008213100086E
:10004000493100084D310008513100085531000890
:10005000593100085D310008613100086531000840
:10006000693100086D3100087131000875310008F0
:10007000793100087D3100088131000885310008A0
:10008000893100088D310008913100089531000850
:10009000993100089D310008A1310008A531000800
:1000A000A9310008AD310008B1310008B5310008B0
:1000B000B9310008BD310008C1310008C531000860
:1000C000C9310008CD310008D1310008D531000810
:1000D000D9310008DD310008E1310008E5310008C0
:1000E000E9310008ED310008F13100082DE9F04355
:1000F0009FB000BF65A6269CDFF8B48A8DF83B4010
:10010000029100240B944FF0FF37044691461D46A0
:100110000AE019F8011B0298A0470028029000F09D
:10012000A1800B98401C0B9099F8000050B1252835
:10013000EFD10021002205910692079108920991C2
:100140000A9203E00B98A5E041F0010119F8010FB4
:100150002028F9D023280CD02B2804D02D2805D016
:10016000302809D080E041F00201EFE741F00401BE
:10017000ECE741F00801E9E741F01001E6E70D92F4
:100180000AE00D98404505DA00EB800002EB4002E2
:10019000303A0D9209F1010999F80020A2F13000DE
:1001A0000A28EED399F800002E2818BF0C9726D104
:1001B00019F8010F2A2808D12868286009F10109D7
:1001C00050F8042B28600C9219E02D280CBF09F17F
:1001D0000109002000220C920BE040B90C9A424524
:1001E00005DA02EB820203EB4203303B0C9309F188
:1001F000010999F80030A3F130020A2AEDD3ADF8D5
:100200003810304699F8001000F086FE08B119F851
:10021000010B8DF83A009DF83A00682805D199F84D
:10022000000068280CD1622106E06C2804BF99F810
:1002300000006C2804D171218DF83A1009F10109F0
:1002400010A804902A4619F8013B6946204600F0A0
:1002500061F838B910AA6946204600F08FF90028E5
:100260007FF562AF384615E02A2888D12A682A60CF
:1002700052F8040B2A6000280D9003D540420D90DF
:1002800041F0040109F101098CE70000686A6C740F
:100290007A4C00001FB0BDE8F083622820D06828A7
:1002A00011D06A2803D06C2827D0712825D108687E
:1002B000C01D20F007000860D0E900230830086066
:1002C000194610467047002A0A680A60106803D071
:1002D000121D0A6000B217E0121D0A6080B217E01A
:1002E000002A0A680A60106803D0121D0A6040B232
:1002F0000AE0121D0A60C0B20AE0002A0A680A6019
:10030000106803D0121D0A60C1177047121D0A60E1
:100310000021704770B51C460D46B4F125002E69CA
:10032000114600F019811C3868D0001F022865D9D9
:10033000133842D0093861D0801E16D0401E1ED01E
:10034000401E02285AD9001F19D0401F00F081809A
:10035000401E32D0401E00F0CB80C01E00F0DA807C
:10036000801E2AD0C01E28D0FCE06869421C6A6149
:100370000A680A6052F8043B0A603354FCE095F8BE
:100380003A000122FFF789FFC5E90001002904D5E1
:100390006869411C69612D220DE0288F810704D511
:1003A0006869411C69612B2205E0C00721D5686995
:1003B000411C6961202232541BE095F83A0000226A
:1003C000FFF76BFFC5E9000195F83800010710D56C
:1003D000D5E90023002B08BF002A0AD044F02000F2
:1003E000782806D1686930213154401C421C6A616A
:1003F0003454214668693044E86087E00868C01DCD
:1004000020F007000860D0E9002308300860C5E943
:100410000023D5E90001C80F04D06869411C696157
:100420002D220DE0288F810704D56869411C696180
:100430002B2205E0C00704D56869411C69612022B0
:10044000325468693044E8602146284600F0C4F917
:1004500092E005F13A02507820B14FF0FF340FF6E8
:10046000202062E01078622808D0682824D06A280A
:1004700012D06C282ED071280ED02BE00A680A60AA
:1004800052F8040B0A6020B94FF0FF340FF6082031
:100490004BE0E96A01706FE00A680A6052F8040BE9
:1004A0000A6020B94FF0FF340FF6EC103DE0EA6A25
:1004B000D317C0E900235FE00A680A6052F8040B12
:1004C0000A6020B94FF0FF340FF6CC102DE0E96A36
:1004D000018051E00A680A6052F8040B0A6020B9F2
:1004E0004FF0FF340FF6B0101FE0E96A016043E0FF
:1004F0000A680A6052F8040B0A60002120F000022A
:1005000021F0FF33C5E90023EE607821284600F092
:10051000BBF831E00868086050F8044B0860EC60F4
:100520003CB94FF0FF340FF6881000F005FD201A9B
:1005300070BD2E6B002E04D5204600F01DFD044634
:1005400008E032460021204600F032FD002814BFAA
:10055000041B3446AC610FE06869411C69612522C7
:10056000325409E06969481C6861252272542100EF
:1005700002D0431C6B613454002070BD2DE9FC4156
:100580000F46064690467A6B7869396ABC6A121A39
:10059000B869521A796A121AF869521A121A97F837
:1005A0003800141B41070FD42020002C8DF80000C8
:1005B0000ADD254601236A463946304600F048FCEC
:1005C00000285DD16D1EF5D17B6942463946304623
:1005D00000F03EFC002853D130208DF800003D6A29
:1005E000002D09DD01236A463946304600F030FC13
:1005F000002845D16D1EF5D1BB69FA6839463046F1
:1006000000F026FC00283BD130208DF800007D6AE8
:10061000002D08DD01236A463946304600F018FCFB
:1006200070BB6D1EF6D1F868B969FB69421839468E
:10063000304600F00DFC18BB30208DF80000BD6A7C
:10064000002D08DD01236A463946304600F000FCE3
:10065000B0B96D1EF6D197F8380041070DD52020AE
:10066000002C8DF8000008DD01236A46394630462B
:1006700000F0EEFB20B9641EF6D10020BDE8F68143
:100680004FF0FF30BDE8F6812DE9FC4307466F29A6
:100690003E6908BF082405D041F02000782814BF27
:1006A0000A2410243C25D7E90023642918BF6929AE
:1006B0009046994605D1002B03D5D8F1000869EB87
:1006C0004909B9F1000F08BFB8F1000F1FD1386B0D
:1006D000E8B9082C4CD197F83800010748D53020EC
:1006E0003B2586F83B0043E000280ED597F83800FC
:1006F00000F01400102808D17B6B7969386A5B1A06
:100700001B1A9A1A002AC8BF3A62BDE8F3838DF813
:100710000010404649462246E31700F075FC30328F
:10072000D0B26D1E3A28019504DB9DF80000A0F1BF
:1007300051018A187255404649462246E31700F097
:1007400063FC80465FEA010908BFB8F1000F03D0DF
:10075000F86871198842DCD3082C09D197F8380061
:10076000010705D5705D302802D06D1E3020705510
:10077000C5F13C02BA617119F960386B8242B3DA93
:10078000821A3A624FF6EF70398F01403987BDE81F
:10079000F3832DE9D04306460F4614464FF0000878
:1007A000DFF8109412E0E00707D542464B4630468A
:1007B000394600F041FD06460F464046494642464E
:1007C0004B4600F039FD641080468946002CEAD182
:1007D00030463946BDE8D0832DE9F84F05468A46B4
:1007E0004AF020048EB0D5E90089612C02AE09D010
:1007F000286B002848BF062003D408BF672C01D10E
:1008000001202863D5E900014A005215521C0DD180
:100810000B030BD0AAF1610103201A29A86102D2AF
:100820000FF2A86110E00FF2A8610DE04A00521526
:10083000521C0ED10B030CD1AAF1610103201A291D
:10084000A86116D30FF29061E868032200F0C6FD9C
:10085000C0E1CDE90C01DDE90C2323F00043B3F541
:10086000801F0DD20027002B08BF002A019703D15B
:1008700011E00FF26061E7E701AA00F003FE0AE071
:10088000CD48CE4900EB1350DDE90C2301900B401D
:10089000CB4910461943C5E90001612C0DD1E86828
:1008A00030210170821CBAF1610FEA600CBF78211F
:1008B000582141706869801C6861D5E90001CDE963
:1008C0000C01DDE90C2333F0004104BF00280023B4
:1008D00000F04881612C40F0A080286B4946002838
:1008E0004CBF4FF0210B00F1010B404600220023CA
:1008F000DDE90C8900F0FEFD01990BF1010738BF1D
:1009000089F00049091F002F01918DF808200DF191
:10091000090040F33581A949009106464046494601
:100920000022002300F0FEFD80F029814800400DE8
:1009300000F11C0211D0002A0FDD40F2FF739A4231
:1009400005DBA04909F000400143002011E0009BB5
:10095000194041EA025140460BE028F0000039F00E
:10096000004108BF00280FBF49461C22494600F03D
:10097000F1FD8046894600F08BFEFF1F002F0446E4
:1009800009DD00F0A3FE02460B464046494600F052
:10099000AFFE80468946F01D072104E004F00F02F7
:1009A00000F8012D2411002C01DD491EF6D5491E49
:1009B0005CBF002200F8012DF9D5DCE000201946CB
:1009C00002AA0A4400E05B1E12F80149491E844253
:1009D000F9D00F2804D10DF10900425C521C425499
:1009E000002904D50198001D02AE5B1C0190581E21
:1009F0000CD43118AAF13A040A783032D7B23A2F1F
:100A0000A8BFA218401E01F80129F5D5286B0028BF
:100A100040F1A780591E2963A3E001996A4A47F271
:100A20009750414391FBF2F2019229F00046D2F136
:100A3000070204DD40463146FFF7ABFE0AE05242B2
:100A400000206249FFF7A5FE02460B4640463146AC
:100A500000F0C0FE8046662C286B06BF019F0A3757
:100A600006273F18142FC8BF142730208DF8080020
:100A700089460DF1090000E03046002F34DD0646BE
:100A80004046494600F0CAFF01460A4606F10803FF
:100A900004200A26B2FBF6F606EB860EA2EB4E0207
:100AA000303203F8012C0A22B6FBF2F202EB820E7E
:100AB000A6EB4E063036401E03F8026DE9D1083F22
:100AC000002F03F10806D7DD084600F0BBFF024601
:100AD0000B464046494600F00BFE00223C4B00F01E
:100AE000ABFB80468946CBE70DF10901401A0DF1B9
:100AF000090604E00199491E401E0191761C3178D7
:100B00003029F7D0662C02D10199491C03E0652CED
:100B10000CBF012100212B6BCB189842B8BF431E9C
:100B2000002B1ED4834204DAF05C3528A8BF39209C
:100B300000DA30201946721E02EB010800E05B1E4D
:100B400018F80199491E8145F9D0392802D1705C05
:100B5000401C7054002904D50198401C16465B1CAB
:100B60000190019800B200901BB2324651462846CF
:100B700000F034F82EE0C61D002F3FF7CFAE304610
:100B80000DF10901401A03465845C8BF5B46002BCA
:100B90000DF109063FF53AAF8342BFF60FAF0DF1F5
:100BA0000900C15C07297FF709AF0F2007E70000A4
:100BB000CBCCCC0C0000244002FCFFFFFFFF0F80D9
:100BC0000000E03F0000F07FA08601000000F03F41
:100BD00084D797410FB0BDE8F08F00002DE9FC43AA
:100BE000054683B01F46D5F83080002F164602DC3C
:100BF0005FF00107B9A6894649F02000BDF93040F1
:100C0000662808BF641C17D0672840F0888014F15C
:100C1000040FC0F28A80444580F2878095F838003E
:100C2000641C010702D44745B8BFB84620B2B8EBF0
:100C3000000848BF4FF000080FFA84F9E868A96976
:100C4000B9F1000F27DC4A1C30234354B8F1000FE0
:100C500003DC95F83800010703D5E9682E20885495
:100C6000521C18EB090FB8BFC8F1000424B260424F
:100C70006862A044B845AA61B8BF4746EB68A86956
:100C80003FB2EF613A463146184400F0A7FBA8EBAB
:100C90000700A862C5E022B29742084419DA3A4632
:100CA000314600F09BFBA8693818A9EB0707B8F19B
:100CB000000FA8616F6203DC95F838100A0705D5AC
:100CC000EA682E211154E869401CE861C5F82880C3
:100CD000A7E0314600F082FBA8693F1BB8F1000F86
:100CE000484403DC95F838100A0703D5EA682E213A
:100CF0001154401CA86138B28045EB68A869B8BFA0
:100D000047463AB206EB0901184400F067FBA969AF
:100D10003FB27918A8EB0707A9616F6281E0B9F1CA
:100D2000610F16D14FF0700918E0474504DA95F8C5
:100D300038100A0758BFB846B8F1010848BF4FF04D
:100D40000008B9F1670F14BF4FF045094FF065096E
:100D500004E0B9F1410F08BF4FF05009A969EB68F1
:100D6000481CA861B8F1000F16F8012B5A5403DC97
:100D700095F838100A0719D5EA68431CAB612E2193
:100D80001154B8F1000F11DD7F1E38B23146804595
:100D9000EE68B8BF47463AB2F01800F01FFBA869EA
:100DA0003FB23818A861A8EB07006862E868A96933
:100DB0000844002C80F8009003D42B224270811C40
:100DC00003E02D2141706442811C00206A460AE044
:100DD00023460A2493FBF4F404EB8406A3EB4603B6
:100DE00002F8013B401C24B2002CF1DC012806DC97
:100DF00049F02002652A04BF302201F8012B48B9CE
:100E0000302001F8010B07E0401E1DF800303033A0
:100E100001F8013B0028F7DCEA68A8691044091AC8
:100E2000E96195F8380000F0140010280DD16A69C6
:100E3000A969686A8A18E9698218A86A8A188218F2
:100E4000686B8242BCBF821A2A6205B0BDE8F0839B
:100E5000F8B505460E4617461C46002074B117F833
:100E6000011BB068A847B06030B1F06A401CF06266
:100E70000020641EF3D1F2BD4FF0FF30F2BD000040
:100E80007072696E74665F733A20256E20646973B0
:100E9000616C6C6F776564007072696E74663A207D
:100EA00062616420256E20617267756D656E7400E5
:100EB0007072696E74665F733A2062616420257394
:100EC00020617267756D656E740000006E616E0062
:100ED0004E414E00696E6600494E4600300030B407
:100EE000002513E050F8042BD30744BFA9F10103F8
:100EF0009A18091F042942F8045BFAD213468C079A
:100F000044BF15809B1CC90748BF1D7050F8041BC7
:100F10000029E7D130BC7047C9B202788A421AB1C1
:100F20001CBF10F8012FF9E718BF002070470268B6
:100F3000531C03601170704780B500B906A00549C5
:100F40000B681BB122220021984701E000F087FDC9
:100F5000222002BD08000020636F6E737472616905
:100F60006E742068616E646C65723A206261642000
:100F70006D6573736167650000F10103810704D03B
:100F800010F8011B820781B1FAD10268A2F1013188
:100F9000914311F0803104BF50F8042FF6E709BAED
:100FA000B1FA81F100EBD100401CC01A704700007B
:100FB000C9B2830706D0521E22D310F8013B9942D2
:100FC000F7D11FE0083A13D302F1040241EA0121EC
:100FD00041EA014150F8043B121F21BF4B40A3F1ED
:100FE000013C2CEA030C1CF0803FF3D0C9B2001F77
:100FF000083210F8013B521E28BF91EA030FF8D8BF
:1010000018BF0120401E7047BBBBE1B1B2F5803F65
:1010100080F07E80022A1ED98C46B1FBF2F102FBE1
:1010200011C31B0443EA1043B3FBF2FC02FB1C3365
:1010300080B240EA0343B3FBF2F002FB103240EA15
:101040000C4000237047022A05D98446B0FBF2F019
:1010500002FB10C270474AB105D100F001024908F5
:101060005FEA3000704700220023704700F0FABCAE
:101070000B000200002100207047904271EB030C2E
:10108000F6D3B3F5803F2FD2F0B5B3FA83F7B1FAB8
:1010900081F4A7F10F0E3D1B5340CEF1200602FA5A
:1010A0000EF2F3415340B5F10F0746D80F3C2C44E4
:1010B0004140C4F12006A040F1414140B1FBF3F6AC
:1010C00003FB1611A2FB0645001BA94102D2761EA6
:1010D0008018594180EA010221FA0EF362FA0EF2F9
:1010E00000215A403046F0BD30B4B1FBF3FC03FBA5
:1010F0001C11A2FB0C45001BA94103D2ACF1010C51
:101100008018594130BC02460B46604600217047AA
:10111000B2F1807F65D3F0B5B2FA82F7B1FA81F40B
:10112000C7F10F063D1B22FA06F307F1110EF2413B
:1011300020355A40B5F10F07B8D94140C4F1200617
:10114000A040F1414140B1FBF3FC03FB1C11A2FBA9
:101150000C45001BA94103D2BCF1010C8018594178
:101160000F2F12D30F3FC90341EA5041B1FBF3F6F1
:1011700003FB1611A2FB0645D4EBC030A94102D2F5
:10118000761E8018594146EACC3C07B34140C7F16E
:101190002006B840F1414140B1FBF3F603FB1611C4
:1011A000A2FB0645001BA94102D2761E80185941B8
:1011B00080EA010221FA0EF3C7F1200462FA0EF26E
:1011C0000CFA07F05A402CFA04F13043F0BD80EAE3
:1011D000010221FA0EF3002162FA0EF260465A4033
:1011E000F0BD8C46B1FBF2F102FB11C31B0243EAD6
:1011F0001063B3FBF2FC02FB1C331B024CEA002021
:1012000043EA1063B3FBF2FC02FB1C331B024CEA03
:10121000002043EA1063B3FBF2FC02FB1C331B0209
:101220004CEA002043EA1063B3FBF2FC02FB1C32E1
:101230004CEA002000237047B0B581EA030C0CF0A3
:10124000004C40F2FF7515EA11541DBF15EA135703
:10125000AC42AF4239E0E41923EA455343F480132A
:10126000C90241F0004141EA505EC7021100A7FBEC
:10127000020200284FF00000EEFB01204FF00001B9
:10128000E3FB072118BF42F0010240180021494149
:10129000E3FB0E01A4F580640F0302D2520040412B
:1012A000494154F101046CDD470872F1004250F1EC
:1012B000000051EB0451A1F580115CBF41EA0C0123
:1012C000B0BD4CEA05510020B0BD05EA1357AC4251
:1012D00014BFAF4241E050EA410E1CBF52EA430E38
:1012E00002E061460020B0BD24423C441BD15FEACD
:1012F000070EF6D0090302BF01460020AEF1140E1E
:10130000B1FA81F7AEEB070401FA07FE0C37C7F11B
:10131000200100FA07F7C8404EEA000E23EA4553C1
:1013200043F48013A2E733F00043B3FA83F704BF1A
:10133000B2FA82FE77440B3FE41BB7F1200E2FBFB9
:1013400002FA0EF3BB40C7F1200E22FA0EFE38BFA0
:1013500043EA0E03BA40641C82E750EA410E14BF10
:1013600052EA430E6FF000014FF4001717EB430FE2
:101370008ABF194617EB410FB5E74CEA055100202B
:10138000B0BDD4F10104B4F120070FDAC4F1200795
:10139000520828BF42F0010210FA07F501FA07F7D8
:1013A000E1BF2A43E0403843E1400FE0352C98DCB0
:1013B000C7F1200452EA400220FA07F218BF42F0B7
:1013C000010231FA07F0A1400A43002172F1004204
:1013D00050F1000051EB0C01B0BD000062B38B076F
:1013E00008D0521E11F8013B00F8013B00F02480A8
:1013F0008B07F6D1830740F0208000BF103A07D357
:1014000030B4B1E83810103AA0E83810F9D230BC46
:10141000530724BFB1E80810A0E8081044BF51F8F2
:10142000043B40F8043BD20724BF31F8022B20F8DC
:10143000022B44BF0B7803707047121F17D35B0059
:1014400009D151F8043B20F8023B1B0C121F20F875
:10145000023BF6D20BE051F8043B00F8013B1B0ABB
:1014600020F8023B1B0C121F00F8013BF3D238BFDF
:10147000121D521E24BF11F8013B00F8013BF8D8A1
:101480007047000010B5144600F002F8226010BD4D
:10149000C1F30A5343B14A0012F5001F28D2A3F248
:1014A000FE32A1EB0251704750EA410C20D001F00E
:1014B000004C31EA0C01B1FA81F204BFB0FA80F3BA
:1014C000D2180B3AB2F120032CBF00FA03F191407D
:1014D00041EA0C013EBFC2F1200C20FA0CF3194383
:1014E0009040524240F2FD33D21A01EB0351704753
:1014F000002270474FF4001C1CEB410F94BF1CEB03
:10150000430F09E041EA030C50EA4C0C52EA0C0C80
:1015100003D2994208BF9042704714BF8B42824267
:10152000704700004FF4001C1CEB410F94BF1CEBF4
:10153000430F09E041EA030C50EA4C0C52EA0C0C50
:1015400003D28B4208BF8242704714BF9942904237
:1015500070470000124254D440F2FF7C1CEA115341
:101560000FD0634531D09B1863453CBF01EB02515E
:10157000704701F0004141EA0C510020AFF30080B8
:10158000704750EA410320D001F0004C91EA0C0171
:101590001CD0B1FA81F30B3B9A420DD9D21A994073
:1015A00051EA0C01C3F1200C20FA0CFC6144984074
:1015B000531C40F2FF7CD7E7914041EA0C01C2F195
:1015C000200C20FA0CF3194390407047B0FA80F3D6
:1015D0001533202BE0D3202AEED3203A203B9A4229
:1015E00009D9D21A00FA03F141EA0C010020531C78
:1015F00040F2FF7CB8E700FA02F141EA0C0100205A
:101600007047524240F2FF7C1CEA11530DD06345F3
:10161000DBD0B2EB030C3CBFA1EB025170470CF1E5
:10162000010221EA035141F4801150EA410CCCD06F
:1016300001F0004C352A27DC30B481EA0C01B2F10C
:10164000200309DAC2F12003044601FA03F5D04071
:101650002843D1409C400CE0C3F12002450020FA11
:1016600003F418BF44F0010421FA03F091400C4345
:10167000002174F1004550F1000051EB0C012442AF
:1016800030BC7FF47BAF70476146002076E70000F6
:10169000C1F30A5340F2FE329B1A14DDD3F120034A
:1016A0004FEAE17208DDC90241EA505141F00040C1
:1016B000D84080185040704703F2E13010B1D24357
:1016C00082F000407047002070470000C11768B1E9
:1016D0004840401AB0FA80F29040D21CC907C2F5C7
:1016E000846241EA025202EBD021400570470000BB
:1016F00070B44FF0004591EA030F40F1BD816B409B
:10170000841A71EB030603D2001BB1411219734115
:101710004FF4001C1CEB410F34BF7CEB430442E050
:101720000C0DA4EB1356352E4FDC45EAC323DB0A20
:1017300045EAC121C912B6F120050DDD63FA05F6AF
:10174000EB4086EA0305124218BF45F00105C018B8
:1017500051F100010CD213E062FA06F5F240554057
:10176000F3415A40B340F3405A408018594107D3DF
:1017700049085FEA30005FEA350528BF45F00105FA
:1017800001F58011420875F1004250F1000041EB73
:1017900004514E0016F5001F70BC38BF7047002082
:1017A000090D090570471CEB410F10D252EA4306A0
:1017B0000BD0BCEB410F05D80C0DAB43661E342E8D
:1017C000B6DD02E0AB438018594170BC704770BC75
:1017D00070470000F0B540F2FF7581EA030C0CF091
:1017E000004C15EA11541DBF15EA1357AC42AF4225
:1017F000E5E0BC41C1F31301C3F31303801A99411F
:1018000043F4801304D2641E4000494180185941BA
:10181000C90241EA5051B1FBF3F603FB1611A2FBDA
:101820000675D7EBC020A94102D2761E8018594117
:10183000C90241EA5051B1FBF3FE03FB1E11A2FBAA
:101840000E75D7EBC020A94103D2AEF1010E80186E
:101850005941890241EA9051760546EA8E2EB1FB44
:10186000F3F603FB1611A2FB0675D7EB8020A94106
:1018700002D2761E80185941C90241EA50514EEAFF
:10188000060EB1FBF3F603FB1611A2FB0675D7EBB0
:10189000C020A94102D2761E80185941C90241EAEE
:1018A0005051B1FBF3F703FB1711A2FB0735D3EB44
:1018B000C020A94167F100070CBF004247F00107B3
:1018C00066F3D5274FEA1E31B80814F5806412DD9F
:1018D000BD0775F1004250EB0E5051EB045111F56C
:1018E000801F5CBF41EA0C01F0BD4CF07F6141F00C
:1018F000E0410020F0BDBD076D0840EA0E5041F404
:101900008011D4F10104B4F120060ADAC4F12006F2
:101910000200E04001FA06F3E1401843B2401543EB
:101920000EE0342C13DCC6F1200445EA40056D08B6
:1019300020FA06F2154321FA06F0A1400D430021DA
:1019400075F1004250F1000051EB0C01F0BD002098
:101950005FEA0C01F0BDCFB992185B41B3FA83F78F
:1019600004BFB2FA82F6BF190B3FB7F120062FBFB2
:1019700002FA06F3BB40C7F1200622FA06F638BF8A
:101980003343BA401CB1E419641E33E77F4231F09F
:101990000041B1FA81F404BFB0FA80F6A4190B3CFF
:1019A000B4F120062FBF00FA06F1A140C4F12006D1
:1019B00020FA06F638BF3143A0403C1B1AE7AC4280
:1019C0001ABF05EA1357AF4212E050EA41061CBFA6
:1019D00052EA4306BFE750EA4107304661461CBF62
:1019E00041EA0551F0BD52EA430C08BFC143F0BDC6
:1019F00000204FF4001616EB410F98BF16EB430F73
:101A000008BF16EB410F24BFC14305E016EB430F9F
:101A10000CBF61464CEA0551F0BD0000400D49186D
:101A200040EA81200CD2490DA1F58061491C40F0AB
:101A3000004005DBD1F11F0154BFC840C0177047FB
:101A400000207047014648B1B0FA80F18840C91CB7
:101A5000C1F58461090501EBD021400570470120E3
:101A600000F0C0B87047000070B44FF0004591EA34
:101A7000030F7FF545AE6B40841A71EB030604D269
:101A80006E40001BB141121973414FF4001C1CEB56
:101A9000410F34BF7CEB430683E00C0DA4EB1356DF
:101AA000362E00F37C80012E45EAC32341DC43EA55
:101AB000525312BFD20292025B08240545EAC121AB
:101AC00041EA5051D2EBC020994125D407D1B0FA58
:101AD00080F610FA06F162D00020203608E0B1FA54
:101AE00081F6B140C6F1200220FA02F21143B04063
:101AF0004FEAF474B4EB465434F001064FEA740430
:101B00000AD8D6F50016760D04F00044F04061FACC
:101B100006F25040F1404840C00A40EA415021F0EE
:101B2000004128BF5FEA500550F1000044EBD1218D
:101B300035E0DB0A45EAC121C90AB6F120050EDD10
:101B400042EA0242120CC5F1200603FA06F6EB4007
:101B500042EA06056D42984161F100010DE062FA2A
:101B600006F5F240554063FA06FC82EA0C02F340A7
:101B70005A406D42904161EB030111F4801F05D181
:101B8000641E620502D06D004041494121F480117C
:101B9000430875F1004350F1000041EB045170BC63
:101BA00070471CEB410F15D223F0004352EA430665
:101BB0000BD04FEA4C0CBCEB410F04D80C0D661E49
:101BC000342EB7DDEBE7801A994150EA410608BF91
:101BD0000021E4E708BF1CEB430F28BF6FF00001B2
:101BE000DDE7000080B5AFF30080024A1100182045
:101BF000ABBEFBE7260002002DE9F847ADF5A06D6E
:101C000089B0CCA84FF4FA7100F054FA00240025F2
:101C100026002F003221CCA800F050FA00F059FD28
:101C200000F025FD07A8202100F044FA0021002043
:101C300000F038FDDFF8281407A800F009FE00F0D6
:101C40001EFD10A8282100F035FA24A8DFF814148E
:101C50002822FFF7D3FB00F023FB00F085FA1AA837
:101C6000282100F027FA002006900020DFF8F81362
:101C7000CDE904010020DFF8F013CDE902010020D6
:101C8000DFF8E413CDE9000124AB1AAA16A9AEA827
:101C900000F01EFE002006900020DFF8CC13CDE9F6
:101CA00004010020DFF8C013CDE902010020DFF8B5
:101CB000B813CDE9000126AB1CAA18A990A800F022
:101CC00007FE002006900020DFF89C13CDE90401F8
:101CD0000020DFF89413CDE902010020DFF888131B
:101CE000CDE9000128AB1EAA10A972A800F0F0FDF2
:101CF000002006900020DFF87013CDE904010020D9
:101D0000DFF86413CDE902010020DFF85C13CDE9B0
:101D100000012AAB20AA14A954A800F0D9FD002084
:101D200006900020D049CDE904010020CE49CDE93C
:101D300002010020CC49CDE900012CAB22AA12A956
:101D400036A800F0C5FD00F092FC0021002000F054
:101D5000A9FCC64907A800F07BFD00F090FCA04656
:101D6000A94600200021CDE9020104A8002100229B
:101D7000C0E9001253E0401C0528FCDB00F03AFFEC
:101D8000801BB94100294AD301D8652847D300F008
:101D90006EFC0021002000F085FCDFF8D4A2DDE914
:101DA0001023514607A800F035FF07A800F067FC94
:101DB000B04E10AFD7E90223310007A800F02AFF88
:101DC00007A800F05CFCD7E90423310007A800F065
:101DD00021FF07A800F053FC0121002000F062FC65
:101DE000D7E90623514607A800F014FF07A800F022
:101DF00046FCD7E90823310007A800F00BFF07A82D
:101E000000F03DFCDDE902239B4907A800F002FF3A
:101E100007A800F034FC00F0EDFE06000F0004A857
:101E200000F05BFFB9F1000F43D1B8F1000F40D1D2
:101E30009248006880023CD591480068400638D539
:101E400001F020F800F0DAFF00F0D4FE8046894669
:101E50005FF0000A10200FE01FFA8AFA5FEA5A0AC0
:101E600009E02EA9095CFF29F6D11FFA8AFA5FEA78
:101E70005A0A5AF4004A401C2028F2DB504680B22D
:101E8000000980B2FFF7DEFDCDE900011FFA8AFAF2
:101E90001AF00F0A5046FFF719FC0022794BFFF7A2
:101EA00099FC02000B00DDE90001FFF7DDFDCDE943
:101EB000020100F09FFEB0EB080071EB0901002960
:101EC0000AD302D8B0F57A7F06D300F0DBFF2EA844
:101ED00000F0AFFFA046A94602AA10A9CCA800F0C6
:101EE00031F8AEA800F00FFD90A800F00CFD72A82C
:101EF00000F009FD54A800F006FD36A800F003FD2F
:101F0000DDE91A01FFF7C4FB5F4908600DF1680ABB
:101F1000DAE90201FFF7BCFB5C490860DAE9040179
:101F2000FFF7B6FB5A490860DAE90601FFF7B0FB94
:101F300058490860DAE90801FFF7AAFB564908602A
:101F4000002019E72DE9F0410D00160000240021C2
:101F500006E00022002305EBC107C7E90023491C66
:101F60000529F6DB002780461BE0042C18D138F841
:101F70001700FFF767FDD5E90823FFF775FDC5E9F1
:101F8000080100240CE0032CEFD138F81700FFF70C
:101F900059FDD5E90623FFF767FDC5E90601641C75
:101FA0007F1CFA2F29DA002C0BD138F81700FFF725
:101FB00049FDD5E90023FFF757FDC5E90001641C81
:101FC000EEE7012C0BD138F81700FFF73BFDD5E900
:101FD0000223FFF749FDC5E90201641CE0E7022C7A
:101FE000D1D138F81700FFF72DFDD5E90423FFF70D
:101FF0003BFDC5E90401641CD2E700242CE005EB9D
:10200000C402D2E900010022244BFFF7E3FB05EBF9
:10201000C402C2E9000105EBC402D2E90001204A72
:10202000204BFFF7D7FB05EBC402C2E9000105EB2B
:10203000C402D2E9000100221B4BFFF7CBFB1B4A75
:102040001B4BFFF7C7FBD6E90023FFF70DFD05EBA0
:10205000C402C2E90001641C052CD0DBBDE8F0819C
:10206000BC30000808300008000024400831000897
:102070001031000818310008F0300008000002405C
:10208000004400400000304038080040342C01403B
:10209000382C01403C2C0140402C014000004940BC
:1020A0002E573F36D96493400000594084B9DDCBA8
:1020B0007D72043F002200F05FBF000038B50400CD
:1020C0000D0000F016F800F046F8DFF8A8030168EC
:1020D00031F0A0610160016851F00071016000F011
:1020E00065F9290089B2200000F0ACF900F0B2FDDA
:1020F00031BDDFF88403016851F00201016001681D
:1021000031F005010160DFF87403016851F480319A
:10211000016001688903FCD5DFF86413DFF86423EC
:102120000A60026852F08072026002689201FCD577
:102130000868400840000860086850F00200086025
:10214000086810F00C000828FAD1CF48016851F057
:10215000C05101607047CD48CD490860CD49086045
:102160000720CD490860704730B4C748016851F076
:1021700004010160C949086830F48070086008688B
:1021800030F400700860086830F07000086008687B
:1021900030F008000860FF20C14A10600520C14AE5
:1021A0001060C148026852F001020260086830F015
:1021B00080000860BD4A1068400840001060106848
:1021C00030F002001060106830F0040010601068F9
:1021D00030F480401060B64B1C68B64804401C6068
:1021E000B54C206850F0110020601D68B3480540D0
:1021F0001D60186840F4005050F020001860186806
:1022000040F4804050F0400018601D68AC48054024
:102210001D601D68AB4805401D60206830F022003D
:1022200020605A20A84C20600020A84C20601C6828
:10223000A74804401C60A748036833F010030360FC
:10224000036833F020030360036833F04003036046
:10225000106830F0800010609F48026852F0080259
:1022600002609E48026832F080620260026852F0AA
:1022700000620260026852F040720260026832F04E
:1022800080420260026852F000420260026852F02E
:1022900040520260086850F00100086030BC70478E
:1022A00030B48D490A6840F6010002430A608C4A46
:1022B000106830F480701060106830F400701060A6
:1022C000106830F070001060106830F00800106086
:1022D000FF20844B18600520834B186083480368F7
:1022E00053F001030360106830F080001060804BF1
:1022F0001868400840001860186830F00200186044
:10230000186830F004001860186830F480401860D5
:1023100046F26000774C2060774C2060774C206854
:1023200040F4885050F01100206025687448054042
:1023300025600020734C20600020734C206000203A
:10234000724C20600020724C20607248046834F0A7
:1023500010040460046834F020040460046834F05D
:1023600040040460186830F0800018606A48036810
:1023700053F400430360086850F0040008606749A4
:102380000B68674803400B60086840F4084050F051
:1023900088000860086840F44C5050F03300086032
:1023A000106850F00100106030BC7047344801687C
:1023B00031F480410160016851F4004101604648F8
:1023C000016851F400710160016851F0040101607D
:1023D00054490A68544802400A600A685348024057
:1023E0000A605348016851F00201016051490A68CE
:1023F00052F480720A605049504A11605FF48001C3
:102400004F4A11604F49504A1160016851F4F01170
:102410000160016851F480710160016851F00101AF
:102420000160016851F008010160016851F4800108
:10243000016001680907FCD4016851F004010160E2
:1024400000687047414A136853F001031360404A23
:10245000404B1A60404A1060404A4FF4B46010602C
:1024600089B2052041433E480160106850F00100E8
:10247000106070470400014000200240001002403C
:102480000410024000041D001C1002403F1901000E
:1024900014E000E018E000E010E000E00008004078
:1024A0002C0800402808004014080040080800409C
:1024B00018080040F7F7FFFF20080040EFEFFFFF8C
:1024C000FEFEFFFFFDFDFFFF34080040380800401E
:1024D000FBFBFFFF0408004018100240000C014005
:1024E000002C01402C2C0140282C0140142C0140D0
:1024F000082C0140182C01401C2C0140202C0140CC
:10250000DDDDFFFF342C0140382C01403C2C014024
:10251000402C0140042C0140442C0140040801409F
:10252000BBBBFFFF00080140FFCFCCCCFF3F3333E4
:102530000824014004240140831473003424014022
:102540002C24014000FEFF00102401401410024022
:102550004C240140100002401400024008000240D8
:102560000C000240C0F3C001002905D0AC490A6844
:1025700052F400420A6004E0A9490A6832F40042B9
:102580000A60C0F38001002905D0A5490A6852F409
:1025900080420A6004E0A2490A6832F480420A607C
:1025A000C0F34001002905D09D490A6852F4005249
:1025B0000A6004E09A490A6832F400520A60C007CF
:1025C00005D59748016851F48051016004E09448B2
:1025D000016831F480510160704738B50400904DB6
:1025E000286830F40060286020000011FFF7BAFF6F
:1025F000286850F480602860012000F0EBFA286819
:1026000030F4806028602000FFF7ACFF286850F4A9
:1026100080602860012000F0DDFA286830F48060D6
:10262000286031BD38B504007D4D286850F4006045
:10263000286020000011FFF795FF286850F48060A3
:102640002860012000F0C6FA286830F48060286015
:102650002000FFF787FF286850F480602860012081
:1026600000F0B8FA286830F48060286031BD80B589
:102670000120FFF7B2FF022000F0ACFA01BD38B52F
:102680000400002508E02800C0B2205CFFF7CAFF64
:10269000012000F09FFA6D1C2800C0B2205C0028C9
:1026A000F1D131BD80B5002902D0012908D00FE059
:1026B00050F08000FFF791FF012000F08BFA07E057
:1026C000403050F08000FFF788FF012000F082FAD0
:1026D00001BD10B500F065F8282000F07BFA504CE1
:1026E000206830F400602060206830F48060206052
:1026F0000320FFF737FF206850F48060206005203A
:1027000000F068FA206830F4806020600320FFF752
:1027100029FF206850F480602060052000F05AFAFC
:10272000206830F4806020600320FFF71BFF2068E2
:1027300050F480602060012000F04CFA206830F4F2
:10274000806020600220FFF70DFF206850F4806059
:102750002060012000F03EFA206830F480602060A4
:102760002820FFF73AFF012000F034FA0C20FFF791
:1027700034FF012000F02EFA0120FFF72EFF012088
:1027800000F028FA0620FFF728FF012000F022FAC7
:102790000220FFF722FF052000F01CFAFFF767FF79
:1027A00010BD2048016851F004010160016851F03A
:1027B000080101601C49086840F44C5050F0330097
:1027C00008600A68194802400A601948016831F433
:1027D0007061016017490A68174802400A600A6878
:1027E000164802400A60086840F4000050F40820CF
:1027F00008600B49086830F038000860104A136818
:1028000010480343136013680F48034313601368B1
:102810000E4803401360086830F47C40086070473D
:102820000C0C014018100240040801403333FFFF34
:102830000C080140000C0140FFCFCCFFFFBFBBFFE5
:10284000040C01400033333300444444FF7777776E
:102850005FEA000C11F8012B00F8012B12B111F8FE
:10286000012BF9E7604670472DE9F04F85B006006F
:10287000DDE90EABDDE91089DDE91245159FF26354
:10288000B1633364012086F8700000209E49CDE9D1
:10289000000100220023300000F03AF96420B06506
:1028A0003900300000F078F914980490CDE9024521
:1028B000CDE9008952465B46300000F0C0F800F0D8
:1028C00099F9B16D401A7064300005B0BDE8F08F21
:1028D0002DE9D04F88B00400DDE910ABDDE91289A5
:1028E000DDE914671698079001200690CDE904678A
:1028F000CDE90289CDE900AB2000FFF7B5FF20004C
:1029000008B0BDE8D08F2DE9F84F040094F87000AE
:10291000002801D1002090E000F06CF90500606C07
:10292000281AA16D8842C0F08780A06BD0E90067AB
:10293000226CD2E9000132003B00FEF7D9FE80464E
:10294000894630003900D4E91223FEF7D1FE8246D1
:102950008B46D4E9080142464B46FEF76DFCD4E9AC
:102960001423FFF781F8C4E9140194F871000028DA
:102970000DD1D4E9060152465B46FEF75DFC02002C
:102980000B00D4E91401FEF7B3FEC4E91401D4E945
:102990001A01D4E91423FEF7ADFD04D2D4E91A01DB
:1029A000C4E914010AE0D4E91401D4E91823FEF7BC
:1029B000A1FD03D2D4E91801C4E9140194F871000F
:1029C000002808D0D4E9060142464B46FEF734FC05
:1029D0008046894603E05FF000085FF00009D4E913
:1029E0000A0152465B46FEF727FC02000B00D4E9C1
:1029F0001401FEF77DFE42464B46FFF735F8804650
:102A00008946D4E91A0142464B46FEF773FD02D2CD
:102A1000D4E91A8908E040464946D4E91823FEF76C
:102A200069FD01D2D4E91889E06BC0E90089C4E9E5
:102A300012676564012000E00020BDE8F28F2DE9F7
:102A4000F04D804616001F003000390000220023A0
:102A5000FEF750FD0FD3DDE90845200029000022D4
:102A60000023FEF747FD06D3DDE90A01002200231B
:102A7000FEF740FD00D243E00C98C8F8340001286E
:102A800001D1012000E0002088F87100C8E900674A
:102A9000C8E90245DDE90A01C8E90401D8F858008F
:102AA000FEF7D0FF0022194BFEF794FE82468B46BC
:102AB000C8E9066752465B4620002900FEF7BCFBCA
:102AC000C8E90801DDE90A0152465B46FEF782FECD
:102AD000C8E90A01D8F83000012811D1D8E9060167
:102AE00091F00041C8E90601D8E9080191F00041E0
:102AF000C8E90801D8E90A0191F00041C8E90A01D2
:102B0000BDE8F08D0000000000E06F4000408F4005
:102B100038B5040010001900DDE90423FEF702FDBA
:102B200039D9C4E91801C4E91A2394F870000028BF
:102B300031D0D4E91A01E56BD5E90023FEF7DAFCC0
:102B400005D2D4E91A01E26BC2E900010CE0E26BA4
:102B5000D2E90001D4E91823FEF7CCFC04D2D4E971
:102B60001801E26BC2E90001D4E91A01D4E9142387
:102B7000FEF7C0FC04D2D4E91A01C4E914010AE04A
:102B8000D4E91401D4E91823FEF7B4FC03D2D4E944
:102B90001801C4E9140131BD10B490F87020002A66
:102BA00014D0026B914211D0D0E9062393F0004378
:102BB000C0E90623D0E9082393F00043C0E90823C5
:102BC000D0E90A2393F00043C0E90A23016310BC53
:102BD00070470000D8B40E4CD4E90023D4E9006754
:102BE000B61A9F41C1178F42F8D301D88642F5D358
:102BF000D1BC7047064AD2E9000170470448D0E9C9
:102C00000023521C73F1FF33C0E90023704700001A
:102C1000000000200CB430B583B00A4606A902912A
:102C2000044600250194009502AB01A908487844A8
:102C30001E30FDF75BFA019A157000284EBF04465E
:102C40000198041B204603B030BC5DF80CFB00BFAC
:102C5000DFE2FFFF6248016851F00C01016061484A
:102C6000016831F44C310160016831F48821016060
:102C7000016851F4082101605B490A6832F01802CA
:102C80000A60026852F440120260026832F44002A4
:102C900002605648026852F033020260026832F065
:102CA000CC0202605248026852F040520260026850
:102CB00022F040420260086850F020000860086876
:102CC00050F480700860086850F40070086049484B
:102CD000016851F400410160704780B542490A68BB
:102CE00052F020020A600A6852F480720A600A6890
:102CF00052F400720A603F490A6852F400420A60C6
:102D00003D490968090702D500F009F806E00021ED
:102D100002E000224254491C0829FADB01BD10B42C
:102D200000211FE0136853F400431360324A136814
:102D30001B0701D5012383711268D20601D5012238
:102D4000C2710EE01A6852F400721A602A4A1368BF
:102D50001B0701D5012303711268D20601D5012298
:102D60004271491C042939DA1F4B1A6832F02002DB
:102D70001A601A6832F480721A601A6832F40072AB
:102D80001A601C4A146834F400441460002905D009
:102D90000229D7D012D30329C4D0E2E71A6852F02F
:102DA00020021A60144A13681B0701D5012303701F
:102DB0001268D20601D501224270D2E71A6852F495
:102DC00080721A600C4A13681B0701D501238370B7
:102DD0001268D20601D50122C270C2E710BC70474A
:102DE00018100240000C01400C0C0140040C014082
:102DF000040801400C080140080C01404A480168E1
:102E000051F00101016049484949086049484A496F
:102E100008604A48902101601021494A11604949DF
:102E20000A6852F080020A60016851F001010160F5
:102E300070473D490A6852F001020A603B49424A24
:102E40001160424A10604248802202602022414BB9
:102E50001A60374A11604049374A11603749902259
:102E60000A602022364B1A60364A136853F0C003BA
:102E70001360026852F001020260086850F001001D
:102E80000860704710B43548016841F4003151F0D2
:102E9000040101603248016851F4806101600168F9
:102EA00051F400610160016851F4407101602548EE
:102EB000016831F0C00101602A4A41F64C511160AD
:102EC000294B0C2119600021284C21600821016048
:102ED000186850F4005018602548016831F040012E
:102EE00001601249F0240C6004686406FCD508688F
:102EF0001C6820490C401C6040F271211160196867
:102F000051F00C011960196851F400511960010069
:102F1000C9B2F02904D0C0B2002801D0012000E0DD
:102F2000002010BC70470000141002400444004010
:102F300088000240D03000088C000240800002402F
:102F400084000240144400407400024078000240B3
:102F50006C00024070000240683000081C10024003
:102F600000080140084400400C4400401044004068
:102F700000440040F3DFFFFF00B500BF130096469A
:102F80009446103928BFA0E80C50FAD85FEA417C7B
:102F900028BF0CC048BF40F8042BC90728BF20F841
:102FA000022B48BF00F8012B00BD00000F49086844
:102FB00050F0010008600E4A13680E480340136089
:102FC0000B680D4803400B60086830F480200860EF
:102FD000106830F4FE0010605FF41F0007490860BD
:102FE0005FF0006006490860704700000010024072
:102FF000041002400000FFF8FFFFF6FE0810024038
:1030000008ED00E000000000000000000000694042
:10301000000000000000694000000000000069405E
:10302000000000000000694000000000000069404E
:1030300010B5074979441831064C7C44163404E035
:103040000A68081D114488470146A142F8D110BD05
:10305000080000001400000087DEFFFF0C000000E5
:1030600000000020000000000000FFFF0000FFFF44
:1030700000FFFFFFFFFF00FFFFFFFFFFFFFFFFFF5E
:10308000FFFFFFFFFFFFFFFF00F00DF8002801D05A
:10309000FFF7CEFFAFF300800020AFF30080FEF714
:1030A000ABFD00F002F80120704700F001B800000D
:1030B00007463846FEF796FDFBE70000496E697447
:1030C00069616C697A6174696E672E2E2E0000004A
:1030D0000000FFFF0000FFFF0000FF000000FF00F6
:1030E0000148804701480047AD2F0008FD30000827
:1030F00020202025332E326600000000AFF3008030
:10310000AFF30080FFF7C0FF446F6E650000000062
:1031100025332E30660000002025332E3066000057
:1031200080B5FFF76BFD01BDFFF7FEBFFFF7FEBFE8
:10313000FFF7FEBFFFF7FEBFFFF7FEBFFFF7FEBFC3
:10314000FFF7FEBFFFF7FEBFFFF7FEBFFFF7FEBFB3
:10315000FFF7FEBFFFF7FEBFFFF7FEBFFFF7FEBFA3
:10316000FFF7FEBFFFF7FEBFFFF7FEBFFFF7FEBF93
:10317000FFF7FEBFFFF7FEBFFFF7FEBFFFF7FEBF83
:10318000FFF7FEBFFFF7FEBFFFF7FEBFFFF7FEBF73
:10319000FFF7FEBFFFF7FEBFFFF7FEBFFFF7FEBF63
:1031A000FFF7FEBFFFF7FEBFFFF7FEBFFFF7FEBF53
:1031B000FFF7FEBFFFF7FEBFFFF7FEBFFFF7FEBF43
:1031C000FFF7FEBFFFF7FEBFFFF7FEBFFFF7FEBF33
:1031D000FFF7FEBFFFF7FEBFFFF7FEBFFFF7FEBF23
:1031E000FFF7FEBFFFF7FEBFFFF7FEBFFFF7FEBF13
:0431F000FFF7FEBF28
:04000005080030FDC2
:00000001FF
